:020000040000fa
:080000000001040000000000f3
:020000040000fa
:10020000cf8820000e9f20000e0188000000000013
:100210000c00070020172100010020001f0007002c
:10022000000020000000e000020032000000020098
:1002300000000000b0030200000000000040da00ef
:100240000000fe004440a900002020000000e00063
:100250000300320000002000a00188004440a800f4
:1002600000000600f03fb1000180b100060035003b
:10027000ee03090000000000403fb1000180b10022
:10028000fbff3d001000b000203fb0000200350031
:1002900000800900000000000000060091018800b5
:1002a000800078000000eb0015003700e28040007d
:1002b00032a0b4009101ba00e280400032a0b40044
:1002c0009102ba00e280400032a0b4000002eb00cc
:1002d000472bde00f507b200602ce10004003a0075
:1002e0000059eb008301e900fdff3e0004003700e8
:1002f0006128e100010032000082eb0004000700e9
:100300001101ba000200e000e8ff3a000000060018
:100310003159ba008301e9000c0032002159ba00ba
:100320008301e900080032000400e00003003a0005
:10033000e280400032a0b400f5ff370011d9ba00c6
:100340008301e900faff3a008100e800e180400003
:1003500032a0b400000006000040da000000fe00f9
:020000040000fa
:0200000401f009
:04000800ffff0000f6
:020000040000fa
:0200000401f009
:04000c00fdff0000f4
:020000040000fa
:0200000401f009
:040010007fff00006e
:020000040000fa
:0200000401f009
:04001400ffff0000ea
:020000040000fa
:0200000401f009
:04001800ffff0000e6
:020000040000fa
:0200000401f009
:04001c00ffff0000e2
:020000040000fa
:10000800ac010000ac010000ac010000ac01000034
:10001800ac010000ac010000ac010000ac01000024
:10002800fe100000ac010000ac010000ac010000b3
:10003800ac010000ac010000541100006811000080
:10004800ac010000ac010000ac010000d60f0000bc
:10005800ac010000ac010000ac010000ac010000e4
:10006800ac0100003a110000e20f0000ac010000f2
:10007800ac010000ac010000ac010000ac010000c4
:10008800ac010000ac010000ac010000ac010000b4
:10009800ac010000ac010000ac010000ac010000a4
:1000a800ac010000ac010000ac010000ac01000094
:1000b800ac010000ac010000ac010000ac01000084
:1000c800ac010000ac010000ac010000ac01000074
:1000d800ac010000ac010000ac010000ac01000064
:1000e800ac010000ac010000ac010000ac01000054
:0800f800ac010000ac010000a6
:020000040000fa
:10010800ac010000ac010000ac010000ac01000033
:10011800ac010000ac010000ac010000ac01000023
:10012800fe100000ac010000ac010000ac010000b2
:10013800ac010000ac01000054110000681100007f
:10014800ac010000ac010000ac010000d60f0000bb
:10015800ac010000ac010000ac010000ac010000e3
:10016800ac0100003a110000e20f0000ac010000f1
:10017800ac010000ac010000ac010000ac010000c3
:10018800ac010000ac010000ac010000ac010000b3
:10019800ac010000ac010000ac010000ac010000a3
:1001a800ac010000ac010000ac010000ac01000093
:1001b800ac010000ac010000ac010000ac01000083
:1001c800ac010000ac010000ac010000ac01000073
:1001d800ac010000ac010000ac010000ac01000063
:1001e800ac010000ac010000ac010000ac01000053
:0801f800ac010000ac010000a5
:020000040000fa
:10036000efff0000efff0000efff0000efff0000d5
:10037000efff0000efff0000efff0000efff0000c5
:10038000efff0000efff0000efff0000efff0000b5
:10039000efff0000efff0000efff0000efff0000a5
:1003a000efff0000efff0000efff0000efff000095
:1003b000efff0000efff0000efff0000efff000085
:1003c000efff0000efff0000efff0000efff000075
:1003d000efff0000efff0000efff0000efff000065
:1003e000efff0000efff0000efff0000efff000055
:1003f000efff0000efff0000efff0000efff000045
:10040000efff0000efff0000efff0000efff000034
:10041000efff0000efff0000efff0000efff000024
:10042000efff0000efff0000efff0000efff000014
:10043000efff0000efff0000efff0000efff000004
:10044000efff0000efff0000efff0000efff0000f4
:10045000efff0000efff0000efff0000efff0000e4
:10046000d9580000c4560000b1540000a152000049
:1004700097500000934e0000974c0000a44a0000e3
:10048000bb480000dd4600000b450000474300006c
:1004900091410000eb3f0000563e0000d33c0000bd
:1004a000623b0000043a0000bb38000087370000c0
:1004b0006936000061350000703400009733000099
:1004c000d73200002f320000a03100002b31000095
:1004d000d03000008e300000673000005a3000003d
:1004e0005a300000673000008e300000d03000002d
:1004f0002b310000a03100002f320000d732000065
:100500009733000070340000613500006936000048
:1005100087370000bb380000043a0000623b00004f
:10052000d33c0000563e0000eb3f0000914100002c
:10053000474300000b450000dd460000bb480000bb
:10054000a44a0000974c0000934e00009750000012
:10055000a1520000b1540000c4560000d958000058
:10056000d9580000c4560000b1540000a152000048
:1005700097500000934e0000974c0000a44a0000e2
:10058000bb480000dd4600000b450000474300006b
:1005900091410000eb3f0000563e0000d33c0000bc
:1005a000623b0000043a0000bb38000087370000bf
:1005b0006936000061350000703400009733000098
:1005c000d73200002f320000a03100002b31000094
:1005d000d03000008e300000673000005a3000003c
:1005e0005a300000673000008e300000d03000002c
:1005f0002b310000a03100002f320000d732000064
:100600009733000070340000613500006936000047
:1006100087370000bb380000043a0000623b00004e
:10062000d33c0000563e0000eb3f0000914100002b
:10063000474300000b450000dd460000bb480000ba
:10064000a44a0000974c0000934e00009750000011
:10065000a1520000b1540000c4560000d958000057
:10066000efff0000efff0000efff0000efff0000d2
:10067000efff0000efff0000efff0000efff0000c2
:10068000efff0000efff0000efff0000efff0000b2
:10069000efff0000efff0000efff0000efff0000a2
:1006a000efff0000efff0000efff0000efff000092
:1006b000efff0000efff0000efff0000efff000082
:1006c000efff0000efff0000efff0000efff000072
:1006d000efff0000efff0000efff0000efff000062
:1006e000efff0000efff0000efff0000efff000052
:1006f000efff0000efff0000efff0000efff000042
:10070000efff0000efff0000efff0000efff000031
:10071000efff0000efff0000efff0000efff000021
:10072000efff0000efff0000efff0000efff000011
:10073000efff0000efff0000efff0000efff000001
:10074000efff0000efff0000efff0000efff0000f1
:10075000efff0000efff0000efff0000efff0000e1
:020000040000fa
:100760000000fa0042c7bf000042b2000004e000ef
:10077000fcff32008039230061012000b9fe070030
:1007800000382c00911c2000b6fe07000000eb0092
:10079000804288000060fe0001000700fdff370076
:1007a0000600fa00889fbe00804280000000e00042
:1007b0002d003a00570207009d02070001cab3004e
:1007c00000502000dd030700200798008039230037
:1007d00061012000a3fe07002e0090000000e00051
:1007e000100032000000eb0010438800114380002d
:1007f00002cab30000202100a603070080392300ad
:100800006101200097fe07001143800002cab30077
:10081000005020009f030700803923006101200061
:1008200090fe070001cab30000202100c3030700a7
:1008300010438800803923006101200089fe0700f1
:1008400001cab30000902100bc03070000438800e8
:10085000803923006101200082fe07009702070013
:10086000260307005f03070080428000e20f50006c
:1008700084003a00b04280000000e00004003a002a
:1008800084c0bf00614060000004e000020032004c
:1008900071010700b0428800c8c2bf00704060000c
:1008a0000004e00022003a008039230061012000aa
:1008b0006cfe07000000eb00100798000000eb0042
:1008c00070438800110037000000eb00d042880020
:1008d000004380000000e80000438800d042800010
:1008e000f1ff20004a010700714380001e009000c4
:1008f000808f5000fcff32001e0090000000e800d6
:1009000010079800004380004b010700c8c2bf00d9
:10091000704060000004e000ebff32002000200087
:10092000d0428800d0428000f1ff2000380107004b
:10093000c8c2bf000042b2000004e0001f003a003d
:10094000803923006101200046fe07000000eb0013
:10095000000f78000000eb00704388000e003700a5
:1009600010002000d0428800004380000000e90011
:1009700000438800d0428000f1ff200024010700de
:10098000704380009e0f5000fdff32001e0fe800f4
:100990000043800028010700c8c2bf000042b20027
:1009a0000004e000eeff320020002000d04288006a
:1009b000d0428000f1ff200015010700c1438000f4
:1009c000309c2000808f50001d003600f0438000d6
:1009d00001448000e00f5000e08f58001500320005
:1009e000f843800009448000f04380000144800007
:1009f000400bde000700200086007800802f2000da
:100a00000009b8006030b90003027800000242001b
:100a1000802f200000b8b900000242008401780055
:100a20000200540083805c00f04388000144880089
:100a3000030037006000b800f043880001448800dc
:100a4000c1438000f0342c00808f50000d00360030
:100a50000fa3a80006c3bf00704060000004e000c0
:100a6000fcff320090198000104388000683a90023
:100a7000a70007008000780010438000008040003d
:100a8000e043880080428000e30f500075003a0088
:100a9000c8c2bf00704060000004e00003003a00dc
:100aa00000438000813e200059010700c8c2bf00fa
:100ab0000042b2000004e00003003a00104380004e
:100ac000813e2000520107000000eb0080438800b7
:100ad000504380000000e0002a0032000000eb00dc
:100ae000504388000000eb0030438800c9c2bf00bb
:100af000614060000004e00022003a000000eb00ca
:100b0000904388000fa3a80006c3bf000042b200b4
:100b10000004e000fcff3200b01980008043880030
:100b20000aa3a80006c3bf00614060000004e00003
:100b3000fcff3200a0438000904388000019800031
:100b4000a04388000603a90006a3a90080438000f3
:100b50006101b900f04380000144800002004000c0
:100b600083804800f043880001448800a14380004e
:100b7000904380000080500030438800bc00070094
:100b8000b0428800c1438000309c2000808f50001c
:100b900020003600f043800001448000e00f500048
:100ba000e08f580015003200f843800009448000af
:100bb000f043800001448000400bde00070020006d
:100bc00086007800802f20000009b8006030b9004e
:100bd0000302780000024200802f200000b8b90014
:100be00000024200840178000200540083805c000f
:100bf000f043880001448800030037006000b8001b
:100c0000f043880001448800304380000000e90080
:100c100030438800c1438000f0342c00808f5000a6
:100c2000100036000fa3a80006c3bf00704060008c
:100c30000004e000fcff320090198000104388009f
:100c40000683a9003200070080007800104380006e
:100c5000808040003043800000804000e0438800f6
:100c60003200070080428000e40f500001003a008b
:100c70008500070084000700030007004f04be0042
:100c80000080fa00000006000000fa0080428000a8
:100c9000e40f50001c003200d4c2bf00614060006d
:100ca0000004e000050032001000200040448800ed
:100cb0000000eb00504488000400370010002000c2
:100cc000504488000000eb0040448800404480000d
:100cd0000000e00007003200300020008042880061
:100ce000b04280000000e00002003a00600007000f
:100cf000b0428800504480000000e0000200320052
:100d000020002000804288000080fa0000000600d9
:100d10000000fa00f0438000014480004208de0039
:100d2000010020000080fa00000006000000fa0028
:100d300001438000e043800000805000eb0f400042
:100d400010003e00f0ff2000600888000000eb006b
:100d50003008880011e1a80010002000d04288006f
:100d6000004380000000e9000043880011c1bf007b
:100d700001c8b300014060000004e000fbff3a003e
:100d80002100370001438000e043800000805000d4
:100d9000ea0f500010003600f0ff200060088800c5
:100da0000000eb003008880011e1a8000000eb0013
:100db000d0428800004380000000e8000043880023
:100dc00011c1bf0001c8b300014060000004e00091
:100dd000fbff3a000c003700f0ff2000600888009d
:100de0000000eb003008880011e1a800200020007e
:100df000d042880011c1bf0001c8b30001406000ab
:100e00000004e000fbff3a000080fa00000006004a
:100e10000400fa00000f780011079800f0ff20008e
:100e2000600888000000eb003008880011e1a8008d
:100e30000080fa00000006000200fa00000f7800af
:100e40001e0078004200dd0001ccb3006d030700f6
:100e50000080fa00000006000000fa009400a900db
:100e60008400a9000000eb000080fa0000000600ea
:100e70000000fa009400a8008400a90010002000df
:100e80000080fa00000006000200fa0060438000c3
:100e9000610060000000e0002500320040002000fa
:100ea0008042880001e4a90084c0bf00684060005f
:100eb0000004e000fcff320020198000904288000e
:100ec00030198000a04288000643a9000663a900eb
:100ed0008460a9000000eb000008880091428000b7
:100ee000401c2000808f500010003600914280008e
:100ef000b0232000808f50000c003e00a1428000f3
:100f0000401c2000808f500008003600a142800065
:100f1000b0232000808f500004003e006c08a90020
:100f2000200020008042880001e4a8009620a8004c
:100f300060438000640060000000e00003003200b5
:100f400030002000804288006c48a9006043800087
:100f5000640060000000e000070032006043800091
:100f6000610060000000e00003003200100020007b
:100f7000000f7800020037000000eb00000f78003f
:100f80001e40780061406000c700dd00e3c2bf0082
:100f90000074a10001407000e3e2b70060438000ec
:100fa0004200de000000a20061406000614060007d
:100fb00061406000614060004201dd00512c200072
:100fc00091407800b0cfb30000c0600002407000d4
:100fd000c5e2b700604380000000a20061406000ed
:100fe0006140600061406000614060004301dd00dd
:100ff000512c20009140780070cfb30000c06000f9
:1010000002407000c5e2b7000080fa000000060050
:101010000600fa0010079800210798000000eb0076
:10102000000f78000000eb007043880010002000e3
:10103000d0428800d0428000f1ff200074ff0700fa
:10104000704380009e0f5000fdff32001e0fe8002d
:101050000043800078ff0700ae00900070438000de
:10106000808f5000f1ff3e0020002000d042880019
:10107000d0428000f1ff200065ff07000000eb0078
:10108000004388000000eb00000f78000000eb0038
:1010900070438800803923006101200071fc070043
:1010a0009e00900070438000808f5000fcff3e0047
:1010b0000000eb00d0428800d0428000f1ff200009
:1010c00053ff0700704380009e0f5000fdff320069
:1010d000004380000000e800004388001e0fe80085
:1010e0000043800054ff070020002000d042880009
:1010f000d0428000f1ff200045ff0700014380003f
:1011000002cab30000902100620107000080fa00cb
:10111000000006000000fa00c102a900c122a800d8
:10112000c142a900c162a900c502a900e3e2a8006a
:10113000c542a800f0ff200030168800c742a90071
:10114000cb42a900d202a800d222a900d602a9004f
:1011500010002000c0168800d802a900d822a900db
:10116000d842a900d862a900d882a900d8a2a900b3
:10117000d8c2a900d8e2a900dc02a900dc22a9009b
:10118000dc42a900dc62a900dc82a900dca2a90083
:10119000dcc2a900dce2a9000000eb00f016880028
:1011a000dec2a800c562a8000020210040438800dc
:1011b0000090210020438800f0ff2000f0428800ca
:1011c000f0072000e04288000000eb005043880058
:1011d0006c08a9006c48a9006c28a9006c68a900db
:1011e0000000eb00704388000000eb0030438800f3
:1011f000f02f2d003010880031108000f0f12f000a
:101200000080600030108800b0112000201088009d
:101210000000eb00c04388000000eb001044880091
:101220000000eb00204488000080fa000000060067
:101230000000fa009400a9008400a9008200a80020
:10124000a4c0bf007040b300a4e0b7000000eb00f2
:10125000b04288009620a8008620a9008240a800fd
:10126000c10a200091407800f0c8b30000c06000bf
:1012700001c6b30001407000ace0b7009640a80082
:101280008640a900d10a20009140780080cfb300a9
:1012900000c060000014a000ade0b700710a20009b
:1012a0009140780080cfb30000c060003040b300b0
:1012b000a7e0b7000080fa00000006000000fa0076
:1012c00000af2500102088000be4a8000bc4a80084
:1012d0000ba4a9000b84a900b14020009140780024
:1012e00030cfb30000c060000be4b7000b24a900ae
:1012f0000b04a9000ac4bf00f043b2000ae4b7001f
:101300000a04a80009e4a90009c4a90009a4a900c5
:101310000984a9000964a9000944a9000924a900b5
:101320000904a9001009200090208800100920005d
:10133000a02088000824a9000804a80080d7220063
:10134000702088000000eb00802088001fe4a800c7
:101350001fc4a8001fa4a9001f84a900f1412000f8
:101360009140780030cfb30000c060001fe4b700a8
:101370001f24a9001f04a9001ec4bf00f043b2002f
:101380001ee4b7001e04a8001de4a9001dc4a900a6
:101390001da4a9001d84a9001d64a9001d44a90065
:1013a0001d24a9001d04a900100920003021880077
:1013b00010092000402188001c24a9001c04a8005a
:1013c00080d72200102188000000eb002021880037
:1013d00033e4a80033c4a80033a4a9003384a900cf
:1013e000314320009140780030cfb30000c060004e
:1013f00033e4b7003324a9003304a90032c4bf008a
:10140000f043b20032e4b7003204a80031e4a9008e
:1014100031c4a90031a4a9003184a9003164a90014
:101420003144a9003124a9003104a9001009200089
:10143000d021880010092000e02188003024a90074
:101440003004a80080d72200b02188000000eb0003
:10145000c021880047e4a80047c4a80047a4a90009
:101460004784a900714420009140780030cfb30038
:1014700000c0600047e4b7004724a9004704a90062
:1014800046c4bf00f043b20046e4b7004604a800db
:1014900045e4a90045c4a90045a4a9004584a900c4
:1014a0004564a9004544a9004524a9004504a900b4
:1014b0001009200070228800100920008022880076
:1014c0004424a9004404a80080d7220050228800a8
:1014d0000000eb0060228800302080006700600080
:1014e0000105200001007000302088000164a80080
:1014f00001e4a8000080fa00000006000000fa00e5
:1015000001a3a9000103a90000e3a90000c3a900e9
:1015100000a3a800013020009140780080cfb300e4
:1015200000c060005040b30000e3b700910a200003
:1015300091407800f0c8b30000c0600001c4b3005f
:1015400001407000a9e0b700005f2f00101888006c
:101550000000eb0030188800a13020009140780096
:1015600000ceb30000c060000004a0000ae3b70092
:10157000b13020009140780000ceb30000c0600080
:10158000c040b3000be3b700f13020009140780079
:1015900000ceb30000c060000004a0000fe3b7005d
:1015a000e13020009140780000ceb30000c0600020
:1015b0000004a0000ee3b7000ae3a8000be3a800b4
:1015c0000fe3a8000ee3a8008560a9009560a800bd
:1015d0008460a9009460a90001e3a8000080fa00db
:1015e000000006000000fa000000eb002008880060
:1015f0004110200091407800f0ccb30000c06000a2
:1016000004e1b7000000eb0000088800602520001e
:10161000100888008460a90005e1a8000000eb0024
:10162000800888000111200091407800f0ccb300c0
:1016300000c0600001c2b3000140700010e1b700bb
:101640000000eb0030088800f0ff200060088800f0
:1016500084c0a90094c0a8000000eb009008880096
:101660002111200091407800f0ccb30000c0600050
:1016700012e1b7000000eb0050088800f0ff2100e5
:101680007008880084e0a90094e0a8000080fa00b7
:10169000000006000c00fa0030079800410798008f
:1016a000224f9800be009000f0f32100808f500080
:1016b00020003e004e0090004800de00004f780001
:1016c0004e009000104798003e009000000040003f
:1016d000200798002e0090004800de003047980058
:1016e0002e00900020479800ae4990001e417800df
:1016f000ae4090003e409000400007003e00900049
:10170000000040000000e800200798002e00900034
:101710004800de00304798002e00900020479800d7
:10172000ae4990001e419000ae4090003e409000b7
:10173000320007000080fa00000006000a00fa00ec
:1017400030079800014f9800be009000f0f3210090
:10175000808f50001c003e003e00900000004000c2
:10176000200798002e0090004800de0030479800c7
:101770002e009000204798000e499000ae40900047
:101780003e409000ad000700004f78003e00900002
:10179000000040000000e800200798002e009000a4
:1017a0004800de00304798002e0090002047980047
:1017b0000e499000ae4090003e4090009f00070010
:1017c00010479800040037000040eb0010479800d5
:1017d0000040eb00004f78001e80fb00c800dd00d9
:1017e0001e4090000080fb00008040002007980011
:1017f0002e0090000080fa00000006000600fa00ab
:101800002047980031479800424798005347980076
:101810000000eb005008880013e1a80010c0b300de
:10182000004f780009c2bf000044b2000004e0008d
:10183000fcff3a000602a80006c2bf00614060003b
:101840000004e000fcff3a000000eb0050088800b4
:101850005e4090000080fb001010880009c2bf00ad
:101860000044b2000004e000fcff32000000eb0086
:101870005008880009c2bf000044b2000004e00024
:10188000fcff3a000000eb00500888002e4090005a
:101890000080fb001010880009c2bf000044b200a5
:1018a0000004e000fcff32000000eb00500888005c
:1018b00009c2bf000044b2000004e000fcff3a008f
:1018c0000000eb00500888003e4090000080fb00c4
:1018d0001010880009c2bf000044b2000004e000fc
:1018e000fcff32000000eb005008880009c2bf0076
:1018f0000044b2000004e000fcff3a000000eb00ee
:10190000500888004e4090000080fb0010108800b6
:1019100009c2bf000044b2000004e000fcff320036
:101920000000eb005008880009c2bf000044b2006c
:101930000004e000fcff3a000000eb0050088800c3
:101940000642a80006c2bf00644060000004e00038
:10195000fcff3a000000eb005008880009c2bf00fd
:101960000044b2000004e000fcff3a000000eb007d
:101970005008880013e1a900c08523002100200041
:1019800038fa070013e1a800280037000602a80073
:101990000000eb005008880006c2bf0061406000f4
:1019a0000004e000fcff3a000000eb005008880053
:1019b0005e4090000080fb001010880009c2bf004c
:1019c0000044b2000004e000fcff32000000eb0025
:1019d0005008880009c2bf000044b2000004e000c3
:1019e000fcff3a000000eb00500888009120200026
:1019f0009140780000c8b30000c060000004e0001f
:101a00000a003a000040eb00004f78000642a800b0
:101a100006c2bf00644060000004e000fcff3a0022
:101a20000000eb005008880013e1a9001e04e0004c
:101a3000d6ff3a000080fa00000006000600fa0017
:101a40002047980031479800424798000000eb007b
:101a50005008880013e1a80009c2bf000044b2008a
:101a60000004e000fcff3a000000eb005008880092
:101a70000602a80006c2bf00614060000004e0004a
:101a8000fcff3a000000eb00500888004e40900038
:101a90000080fb001010880009c2bf000044b200a3
:101aa0000004e000fcff32000000eb00500888005a
:101ab00009c2bf000044b2000004e000fcff3a008d
:101ac0000000eb00500888002e4090000080fb00d2
:101ad0001010880009c2bf000044b2000004e000fa
:101ae000fcff32000000eb005008880009c2bf0074
:101af0000044b2000004e000fcff3a000000eb00ec
:101b0000500888003e4090000080fb0010108800c4
:101b100009c2bf000044b2000004e000fcff320034
:101b20000000eb005008880009c2bf000044b2006a
:101b30000004e000fcff3a000000eb0050088800c1
:101b40000622a80006c2bf00624060000004e00058
:101b5000fcff3a000000eb00500888004e40900067
:101b60000004a0000080fb001010880009c2bf0024
:101b70000044b2000004e000fcff32000000eb0073
:101b80005008880009c2bf000044b2000004e00011
:101b9000fcff3a000000eb00500888000662a80035
:101ba00006c2bf00684060000004e000fcff3a008d
:101bb0000000eb00500888000642a80006c2bf00e3
:101bc000644060000004e000fcff3a000000eb000d
:101bd0005008880008c2bf00624060000004e000b6
:101be000fcff32000000eb0050088800001080006d
:101bf000004f780013e1a9001e80fb000080fa006e
:101c0000000006000600fa001007980041479800ff
:101c10009e009000f0ff20000080600010079800f8
:101c20001e0090004800de00004f78001e0090006b
:101c3000104798000000eb005008880013e1a8004e
:101c400009c2bf000044b2000004e000fcff3a00fb
:101c50000000eb00500888000602a80006c2bf0082
:101c6000614060000004e000fcff3a000000eb006f
:101c7000500888004e4090000080fb001010880043
:101c800009c2bf000044b2000004e000fcff3200c3
:101c90000000eb005008880009c2bf000044b200f9
:101ca0000004e000fcff3a000000eb005008880050
:101cb0001e80fb001010880009c2bf000044b20063
:101cc0000004e000fcff32000000eb005008880038
:101cd00009c2bf000044b2000004e000fcff3a006b
:101ce0000000eb00500888001e4090000080fb00c0
:101cf0001010880009c2bf000044b2000004e000d8
:101d0000fcff32000000eb005008880009c2bf0051
:101d10000044b2000004e000fcff3a000000eb00c9
:101d2000500888001e80fb001010880009c2bf0008
:101d30000044b2000004e000fcff32000000eb00b1
:101d40005008880009c2bf000044b2000004e0004f
:101d5000fcff3a000000eb00500888001e40900095
:101d60000080fb001010880009c2bf000044b200d0
:101d70000004e000fcff32000000eb005008880087
:101d800009c2bf000044b2000004e000fcff3a00ba
:101d90000000eb00500888000642a80006c2bf0001
:101da000644060000004e000fcff3a0013e1a90079
:101db0000080fa00000006000800fa006047980062
:101dc0000000eb005008880013e1a80009c2bf0022
:101dd0000044b2000004e000fcff3a000602a80044
:101de00006c2bf00614060000004e000fcff3a0052
:101df0000000eb00500888006e4090000004a00036
:101e00000080fb001010880009c2bf000044b2002f
:101e10000004e000fcff32000000eb0050088800e6
:101e200009c2bf000044b2000004e000fcff3a0019
:101e30000000eb00500888000662a80006c2bf0040
:101e4000684060000004e000fcff3a000000eb0086
:101e50005008880008c2bf00624060000004e00033
:101e6000fcff32000000eb005008880000108000ea
:101e7000204798000662a80006c2bf0068406000c4
:101e80000004e000fcff3a000000eb00500888006e
:101e900008c2bf00624060000004e000fcff3200a6
:101ea0000000eb00500888000010800010479800e8
:101eb0000662a80006c2bf00684060000004e0009f
:101ec000fcff3a000000eb005008880008c2bf0089
:101ed000624060000004e000fcff32000000eb0004
:101ee0005008880000108000004f78000662a800ab
:101ef00006c2bf00684060000004e000fcff3a003a
:101f00000000eb005008880008c2bf00624060007b
:101f10000004e000fcff32000000eb0050088800e5
:101f200000108000004f78000662a80006c2bf00c3
:101f3000684060000004e000fcff3a000000eb0095
:101f40005008880008c2bf00624060000004e00042
:101f5000fcff32000000eb005008880000108000f9
:101f6000104798000642a80006c2bf006440600007
:101f70000004e000fcff3a000000eb00500888007d
:101f80001e80fb006f006000c800dd001e40900056
:101f90000080fb00008040002007980013e1a900aa
:101fa0002e0090000080fa00000006000000fa00f9
:101fb0009560a9008560a9009560a8000080fa00de
:101fc00000400600809fbe000000fa0011c1bf0063
:101fd00001c8b300014060000004e0006f0032005f
:101fe00011448000f0072000008060001044880049
:101ff00021448000f0072000008060002044880019
:10200000d04280000000e00028003a001144800027
:10201000e04280000080600080004000001b28003b
:10202000008040001000780070208800114480007b
:10203000e04280000080600080004000002b28000b
:1020400000804000100078001021880020448000ab
:102050000102200080804000e0428000808060001b
:10206000f00720000080600080004000001b280076
:102070000080400010007800b021880020448000db
:102080000102200080804000e042800080806000eb
:10209000f00720000080600080004000002b280036
:1020a000008040001000780050228800d04280005c
:1020b000e10f500028003a00204480000102200077
:1020c00080804000e042800080806000f0072000b7
:1020d0000080600080004000001b2800008040005d
:1020e0001000780070208800204480000102200049
:1020f00080804000e042800080806000f007200087
:102100000080600080004000002b2800008040001c
:10211000100078001021880011448000e042800007
:102120000080600080004000001b2800008040000c
:1021300010007800b021880011448000e042800047
:102140000080600080004000002b280000804000dc
:102150001000780050228800d0428000e20f50002a
:1021600008003a000000250070208800f0fe2f00d3
:102170001021880000002500b0218800f0fe2f000b
:1021800050228800104480000000e80010448800bd
:10219000204480000000e800204488008640a90018
:1021a000c1438000309c2000808f500004003e001e
:1021b000c04380000000e800c043880002003700f0
:1021c0000000eb00c0438800d1438000f0342c00b5
:1021d000808f500004003e00d04380000000e800e3
:1021e000d0438800020037000000eb00d043880095
:1021f0000080fa004f00be000040060000a0fe0074
:102200000000fa009400a90001e4a900cb42a80054
:102210000001200001002000f03fb1000180b1006a
:1022200006003500ee03090000000000403fb10049
:102230000180b100fbff3d001000b000203fb00066
:10224000020035000080090000000000cb42a90018
:102250000000eb00b04288008400a90010002000bc
:102260005043880001e4a8000080fa000080fe00ce
:1022700000400600801f78000000fa0080428000c5
:102280000000e0000400320040002000804288008e
:102290006c08a8009620a9008620a9000080fa00fa
:1022a0004f00780000400600801f78000000fa0010
:1022b00084c0a90011e1a900704380000000e8007b
:1022c000704388000080fa004f007800004006004c
:1022d0000000fa0084e0a9000000fe000080fa007f
:0422e00000400600b4
:020000040000fa
:1022e400500800003c000000000000000000000056
:00000001FF
