:020000040000fa
:080000000001040000000000f3
:020000040000fa
:10020000ef892000ae9e20000e0188000000000053
:100210000c000700c0532100010020001f00070050
:10022000000020000000e000020032000000020098
:1002300000000000cc060200000000000040da00d0
:100240000000fe004440a900002020000000e00063
:100250000300320000002000a00188004440a800f4
:1002600000000600f03fb1000180b100060035003b
:10027000ee03090000000000403fb1000180b10022
:10028000fbff3d001000b000203fb0000200350031
:1002900000800900000000000000060091018800b5
:1002a000800078000000eb0015003700e28040007d
:1002b00032a0b4009101ba00e280400032a0b40044
:1002c0009102ba00e280400032a0b4000002eb00cc
:1002d000472bde00f507b200602ce10004003a0075
:1002e0000059eb008301e900fdff3e0004003700e8
:1002f0006128e100010032000082eb0004000700e9
:100300001101ba000200e000e8ff3a000000060018
:100310003159ba008301e9000c0032002159ba00ba
:100320008301e900080032000400e00003003a0005
:10033000e280400032a0b400f5ff370011d9ba00c6
:100340008301e900faff3a008100e800e180400003
:1003500032a0b400000006000040da000000fe00f9
:10036000889fbe008a9fbe00010578000100e00062
:100370000400350008003c000000e00020003200ce
:100380000500370060001000e080180002003b000c
:1003900001f02c001a0037000004be006011b80004
:1003a0006b0920000982cf00020039000882cf00cb
:1003b0000441b000694252000e00320008003b00c8
:1003c00082817100610164008904d1000884d30036
:1003d0008b05e8000442e800f9ff3a000500370009
:1003e0000804440089844c008b05e9000442e900bc
:1003f000fbff3a00bc0007000af0a70001f0a000d4
:100400004f05be004f04be0000000600140020008f
:10041000db00370003f0a200889fbe008a9fbe0069
:100420008c1f7800f1000700f80033006450e100f1
:100430004f0032006420e1005200320003826c0061
:1004400007003b000905d0000306d000820f5400ce
:100450000c065d00020039000200320089017800bc
:10046000030678008582550004003d000003fd006e
:100470008103fd008502ea008b854200840f720033
:1004800002003b0060001000e08018006011b8001e
:100490000005eb007a28e1000a0039000600780028
:1004a000c75ddd00f707b200878075002d003700bb
:1004b000828171000a017800610560008180d100ad
:1004c0000080d3008502e900f9ff3b0006044000ec
:1004d0008784480002003b0060041400e0841c0094
:1004e0000988a300070032008a81710082817100af
:1004f000610164008904d1000884d3008b05e80001
:10050000170037000978a30013003a000b00e00041
:10051000130034008b05e9000804440089844c0072
:100520000a4474000978a3000d003a000b00e000b3
:10053000070034008b05e9000804440089844c005e
:1005400001003a000b0020000978a300f7ff3200f9
:100550000001eb0002003700828171000a0178007f
:10056000610007000cf0a70001f0a000b000370008
:100570006420e10002003a00838f6c00b000330079
:100580000801be000200be00a90037000001be0045
:10059000ae0007000470a70003f0a1006509b100d8
:1005a000160032000d0035006828e1000600350015
:1005b000f0ff2f00f1ff27000300e00013003b00d5
:1005c0000100280000000500000040008180480074
:1005d0008502e900fcff3a0008003700f88f42006e
:1005e00002003c008000eb00000005008100d1000b
:1005f0000080d3008502e800fcff3a000300e00021
:1006000002003b0060001000e080180000000600bf
:10061000889fbe008a9fbe008c1f78007300070071
:100620007a00330003866c006450e100240032003d
:100630006420e100270032006150e1002200320016
:100640006120e100210032008b854200eb07b10000
:100650000134b800003ab8000804420089844a0016
:10066000013ab8000030b8008880400009014a0013
:10067000040033000000400081804800020149006e
:100680008b05e900c909dd0083017000010032001b
:1006900013002000c814de004814dd004709de0006
:1006a0001200b200c808de00088470000e000700c7
:1006b00001f0a1000cf0a70001f0a0005c003700e1
:1006c0006120e1005e0032000801be000200be00b1
:1006d000f7ff37006150e100fcff3a005800370097
:1006e000f4ff2f00260037008100200061805500b4
:1006f0000b003d000b00200061fe2f000100e10017
:100700001d00340082817100610164008904d10000
:100710000884d3000000e800faff3a0071002000ce
:1007200061006400030070000200600009003200f4
:1007300061044400e0844c000988a50005003200f3
:100740008b05e8006808e10002003a008904d10046
:100750000884d300f20f20000258e10005003d009c
:10076000c75ddd00f907b2008980750008007800d8
:10077000000006000bf827008b0078000000050041
:10078000889fbe008a9fbe00841f78001700070064
:100790004f00780011003300f0ff2f00838f6c00b2
:1007a00006003b00040565000a00a70008003700aa
:1007b00009f0a6001000200008003700820f540046
:1007c000838f5c00030039001000200001003e0010
:1007d0000000200009f0a7000000ea004f05be005d
:1007e0004f04be000000e000000006000004be0050
:1007f000160007000003be000405be000200be0094
:1008000012000700844f7500000006000200be00c1
:100810006450e100050036006420e100020036006b
:100820000968a30001003a000800be000160a000b2
:100830004f0678004f05be004f04be0000000600c2
:10084000f0ff2f00f1ff2700f9ff3700c70ade0095
:10085000f107b200f50fb20008003200e1cf42000c
:10086000020032000170a00024000500810f70001a
:10087000010032000408050044000500810f7000eb
:1008800002003a00140005008502e9000000400063
:1008900081c04800fcff3b000170a000240005005f
:1008a000881f78008a1f78004400f800080f200095
:1008b000280288000004900010059000a00090001d
:1008c00030019000c00190000300ca000280ca00fd
:1008d0000030cb001a00cd004604c3000100ca005e
:1008e0004604c0001e04c0000605c0000100cd0083
:1008f00021009800050d7800eaba970005257800d8
:100900004400f9004f0578004f047800000006000d
:10091000801f78004000b0000008eb004f00780016
:10092000801f7800100090000018eb000018eb000a
:100930000008eb004f007800000006004400f800bb
:10094000020f200022028800910078003000ca00c7
:100950003080ca000000cb002080ca000000cb001d
:100960003100cd004000ca000000cb000000cb00e9
:100970000010cb003100cd001180cc004400f90004
:1009800000000600cf80de0075fe07000200200098
:08099000038023001eff370065
:020000040000fa
:0200000401f009
:04000800ffff0000f6
:020000040000fa
:0200000401f009
:04000c00fdff0000f4
:020000040000fa
:0200000401f009
:040010007fff00006e
:020000040000fa
:0200000401f009
:04001400ffff0000ea
:020000040000fa
:0200000401f009
:04001800ffff0000e6
:020000040000fa
:0200000401f009
:04001c00ffff0000e2
:020000040000fa
:10000800ac010000ac010000ac010000ac01000034
:10001800ac010000ac010000ac010000ac01000024
:10002800c8140000ac010000ac010000ac010000e5
:10003800ac010000ac0100001e15000032150000e4
:10004800ac010000ac010000ac010000bc130000d2
:10005800ac010000ac010000ac010000ac010000e4
:10006800ac01000004150000c8130000ac0100003a
:10007800ac010000ac010000ac010000ac010000c4
:10008800ac010000ac010000ac010000ac010000b4
:10009800ac010000ac010000ac010000ac010000a4
:1000a800ac010000ac010000ac010000ac01000094
:1000b800ac010000ac010000ac010000ac01000084
:1000c800ac010000ac010000ac010000ac01000074
:1000d800ac010000ac010000ac010000ac01000064
:1000e800ac010000ac010000ac010000ac01000054
:0800f800ac010000ac010000a6
:020000040000fa
:10010800ac010000ac010000ac010000ac01000033
:10011800ac010000ac010000ac010000ac01000023
:10012800c8140000ac010000ac010000ac010000e4
:10013800ac010000ac0100001e15000032150000e3
:10014800ac010000ac010000ac010000bc130000d1
:10015800ac010000ac010000ac010000ac010000e3
:10016800ac01000004150000c8130000ac01000039
:10017800ac010000ac010000ac010000ac010000c3
:10018800ac010000ac010000ac010000ac010000b3
:10019800ac010000ac010000ac010000ac010000a3
:1001a800ac010000ac010000ac010000ac01000093
:1001b800ac010000ac010000ac010000ac01000083
:1001c800ac010000ac010000ac010000ac01000073
:1001d800ac010000ac010000ac010000ac01000063
:1001e800ac010000ac010000ac010000ac01000053
:0801f800ac010000ac010000a5
:020000040000fa
:10099800efff0000efff0000efff0000efff000097
:1009a800efff0000efff0000efff0000efff000087
:1009b800efff0000efff0000efff0000efff000077
:1009c800efff0000efff0000efff0000efff000067
:1009d800efff0000efff0000efff0000efff000057
:1009e800efff0000efff0000efff0000efff000047
:1009f800efff0000efff0000efff0000efff000037
:100a0800efff0000efff0000efff0000efff000026
:100a1800efff0000efff0000efff0000efff000016
:100a2800efff0000efff0000efff0000efff000006
:100a3800efff0000efff0000efff0000efff0000f6
:100a4800efff0000efff0000efff0000efff0000e6
:100a5800efff0000efff0000efff0000efff0000d6
:100a6800efff0000efff0000efff0000efff0000c6
:100a7800efff0000efff0000efff0000efff0000b6
:100a8800efff0000efff0000efff0000efff0000a6
:100a980009590000235700003f5500005f5300002c
:100aa80083510000ad4f0000de4d0000174c0000e0
:100ab800594a0000a6480000fe46000062450000b2
:100ac800d343000053420000e2400000813f000091
:100ad800303e0000f23c0000c63b0000ad3a00008a
:100ae800a9390000b8380000dd37000018370000c9
:100af80068360000cf3500004d350000e2340000b4
:100b08008f340000533400003034000024340000d7
:100b18002434000030340000533400008f340000c7
:100b2800e23400004d350000cf3500006836000083
:100b380018370000dd370000b8380000a939000078
:100b4800ad3a0000c63b0000f23c0000303e000019
:100b5800813f0000e240000053420000d343000000
:100b680062450000fe460000a6480000594a000001
:100b7800174c0000de4d0000ad4f0000835100000f
:100b88005f5300003f55000023570000095900003b
:100b980009590000235700003f5500005f5300002b
:100ba80083510000ad4f0000de4d0000174c0000df
:100bb800594a0000a6480000fe46000062450000b1
:100bc800d343000053420000e2400000813f000090
:100bd800303e0000f23c0000c63b0000ad3a000089
:100be800a9390000b8380000dd37000018370000c8
:100bf80068360000cf3500004d350000e2340000b3
:100c08008f340000533400003034000024340000d6
:100c18002434000030340000533400008f340000c6
:100c2800e23400004d350000cf3500006836000082
:100c380018370000dd370000b8380000a939000077
:100c4800ad3a0000c63b0000f23c0000303e000018
:100c5800813f0000e240000053420000d3430000ff
:100c680062450000fe460000a6480000594a000000
:100c7800174c0000de4d0000ad4f0000835100000e
:100c88005f5300003f55000023570000095900003a
:100c9800efff0000efff0000efff0000efff000094
:100ca800efff0000efff0000efff0000efff000084
:100cb800efff0000efff0000efff0000efff000074
:100cc800efff0000efff0000efff0000efff000064
:100cd800efff0000efff0000efff0000efff000054
:100ce800efff0000efff0000efff0000efff000044
:100cf800efff0000efff0000efff0000efff000034
:100d0800efff0000efff0000efff0000efff000023
:100d1800efff0000efff0000efff0000efff000013
:100d2800efff0000efff0000efff0000efff000003
:100d3800efff0000efff0000efff0000efff0000f3
:100d4800efff0000efff0000efff0000efff0000e3
:100d5800efff0000efff0000efff0000efff0000d3
:100d6800efff0000efff0000efff0000efff0000c3
:100d7800efff0000efff0000efff0000efff0000b3
:100d8800efff0000efff0000efff0000efff0000a3
:020000040000fa
:100d98000000fa0042c7bf000042b2000004e000b1
:100da800fcff320080392300610120002bfd070081
:100db80000382c00911c200028fd07000000eb00e3
:100dc800304088000060fe0001000700fdff37008a
:100dd8000600fa00889fbe00304080000000e00056
:100de80030003a00ad0207000903070001cab3004a
:100df8000050200042040700200798008039230093
:100e08006101200015fd07002e0090000000e000a1
:100e1800100032000000eb00c0408800c140800094
:100e280002cab300002021000b0407008039230008
:100e38006101200009fd0700c140800002cab3001b
:100e480000502000040407008039230061012000bd
:100e580002fd070001cab300002021002804070092
:100e6800c04088008039230061012000fbfc070096
:100e780001cab3000090210021040700b040880097
:100e88008039230061012000f4fc070003030700f8
:100e980092030700c4030700c0408000a10f200090
:100ea8003d02070030408000e20f50008c003a00fd
:100eb800604080000000e00004003a0084c0bf00e9
:100ec800614060000004e00002003200d701070022
:100ed80060408800c9c2bf00614060000004e000b3
:100ee8000b003a000000eb0070408800b040800022
:100ef800c0408800c0408000c4010700c140800095
:100f080002cab30000202100d30307000400370001
:100f18001000200070408800b0408000bb0107002e
:100f2800c8c2bf00704060000004e00036003a000c
:100f38008039230061012000c8fc07007040800050
:100f4800e10f500020003a000000eb001007980065
:100f58000000eb00c0438800110037000000eb00e0
:100f680080408800b04080000000e800b040880061
:100f780080408000f1ff20009a010700c1438000f3
:100f88001e009000808f5000fcff32001e00900071
:100f98000000e80010079800b04080009b0107009f
:100fa800c8c2bf00704060000004e000ebff3200e0
:100fb800200020008040880080408000f1ff200051
:100fc8008801070010003700c1408000900f200002
:100fd800808f500003003600a00f2000c04088001a
:100fe80003003700c04080000000e800c0408800cf
:100ff800c040800085010700c140800002cab300dc
:101008000020210094030700c8c2bf000042b200bc
:101018000004e00032003a0080392300610120001a
:101028008efc070070408000e10f50001d003a0060
:101038000000eb00000f78000000eb00c0438800c0
:101048000e0037001000200080408800b04080006b
:101058000000e900b040880080408000f1ff2000d7
:1010680060010700c04380009e0f5000fdff320062
:101078001e0fe800b040800064010700c8c2bf002e
:101088000042b2000004e000eeff32002000200021
:101098008040880080408000f1ff20005101070057
:1010a8000f003700c0408000e80f500003003e00ea
:1010b8000000eb00c040880003003700c0408000fb
:1010c8000000e900c0408800c04080004f010700d0
:1010d800c140800002cab300002021005e0307005f
:1010e80030408000e30f500059003a00c8c2bf00ea
:1010f800704060000004e00003003a00b040800047
:10110800a10f2000a4010700c8c2bf000042b2001e
:101118000004e00003003a00c0408000a10f200056
:101128009d0107000000eb00d04388003043800099
:101138000000e000240032000000eb00304388008b
:101148000000eb00e04388000fa3a80006c3bf001f
:101158000042b2000004e000fcff3200b019800039
:10116800d04388000aa3a80006c3bf0061406000fe
:101178000004e000fcff3200f0438000e0438800f8
:1011880000198000f04388000603a90006a3a900ff
:10119800d04380006101b900504480006144800060
:1011a8000200400083804800504488006144880061
:1011b800f1438000e0438000008050001043880025
:1011c8002001070060408800214480008038210009
:1011d800808f500016003a0058448000694480000f
:1011e8005044800061448000ce0bde004209dd00df
:1011f8004e03de000603710086007800a00f200071
:101208000009b8006030b90003027800000242000b
:10121800a00f200000b8b900000242008401780045
:101228000200540083805c005044880061448800b8
:101238009c00070080007800c0408000808040004b
:10124800104380000080400040448800ac00070044
:1012580030408000e40f500001003a00ff00070012
:10126800fe000700030007004f04be000080fa00dc
:10127800000006000000fa0030408000e40f500033
:101288001c003200d4c2bf00614060000004e000ce
:101298000500320010002000a04488000000eb0088
:1012a800b04488000400370010002000b0448800d3
:1012b8000000eb00a0448800a04480000000e0008b
:1012c8000700320030002000304088006040800075
:1012d8000000e00002003a00da00070060408800e1
:1012e800b04480000000e00002003200200020002e
:1012f800304088000080fa00000006000400fa0070
:101308000000eb00b043880010438000520020002a
:10131800110009000200d800cf80de000efc070093
:101328006011b80037fc07000000e000010035003c
:1013380010003700104380005200200011000900ff
:101348000200d800cf80de004f09dd00c100de00ba
:10135800810071004f00dd00fffb07000200200044
:1013680003f0230029fc070086fc070010079800fb
:101378000e003700104380005200200011000900c1
:101388000200d80080007800f0ff27000088b9002c
:10139800cf80de00f0fb07000200200003f02300ee
:1013a8001bfc070077fc0700100798001e00900040
:1013b800a0438800e086200037fd070090438000a6
:1013c8006efd070002002000e32f24008efc0700ba
:1013d8000041eb00124798006011b800befc0700fe
:1013e8000000e00001003c000200370010c0b3001c
:1013f800104798001e4090000004a2000004e0007e
:1014080009003a0010438000ea0f400006003d0042
:101418001000200080408800b04080000000e900f3
:10142800b04088001d0037009043800053fd07003e
:1014380002002000e32f240073fc07000041eb00aa
:10144800024f78006011b800eefb07000000e000d2
:10145800010035000200370010c0b300004f7800cb
:101468001e4078000004a2000004e00009003a00d1
:1014780010438000ea0f5000060034000000eb0023
:1014880080408800b04080000000e800b04088003c
:101498000200370020002000804088000080fa0009
:1014a800000006000200fa005044800061448000f9
:1014b800400bde0007002000860078000032200084
:1014c8000009b8006030b900030278000002420049
:1014d8000032200000b8b900000242008401780000
:1014e800471add004910de0000007200c918de004e
:1014f800000f78001e0078000080fa000000060047
:101508000000fa00b1408000404480000080500094
:10151800f00f400010003e00f0ff20006008880037
:101528000000eb003008880011e1a800100020003e
:1015380080408800b04080000000e900b04088008a
:1015480011c1bf0001c8b300014060000004e00001
:10155800fbff3a0021003700b14080004044800082
:1015680000805000ef0f500010003600f0ff200000
:10157800600888000000eb003008880011e1a8002e
:101588000000eb0080408800b04080000000e800c8
:10159800b040880011c1bf0001c8b300014060001d
:1015a8000004e000fbff3a000c003700f0ff2000c9
:1015b800600888000000eb003008880011e1a800ee
:1015c800200020008040880011c1bf0001c8b3007e
:1015d800014060000004e000fbff3a000080fa00d0
:1015e800000006000400fa00000f780011079800b8
:1015f800f0ff2000600888000000eb003008880039
:1016080011e1a8000080fa00000006000200fa00bc
:10161800000f78001e0078004200dd0001ccb30006
:10162800690307000080fa00000006000000fa00c5
:101638009400a9008400a9000000eb000080fa00d3
:10164800000006000000fa009400a8008400a90029
:10165800100020000080fa00000006000000fa00d8
:1016680040438000610060000000e0002500320077
:10167800400020003040880001e4a90084c0bf0079
:10168800684060000004e000fcff32002019800080
:101698004040880030198000504088000643a90067
:1016a8000663a9008460a9000000eb000008880018
:1016b80041408000401c2000808f50001000360000
:1016c80041408000b0232000808f50000c003e0075
:1016d80051408000401c2000808f500008003600d8
:1016e80051408000b0232000808f500004003e004d
:1016f8006808a900200020003040880001e4a80004
:101708009620a80040438000640060000000e000cc
:101718000300320030002000304088006848a900eb
:10172800e3e2a800404380004200de000000a2007f
:10173800614060006140600061406000614060009d
:101748004201dd00512c200091407800b0cfb30059
:1017580000c0600002407000c5e2b700404380004e
:101768000000a200614060006140600061406000cc
:10177800614060004301dd00512c20009140780059
:1017880070cfb30000c0600002407000c5e2b7002f
:101798000080fa00000006000600fa001007980012
:1017a800210798000000eb00000f78000000eb0014
:1017b800c0438800100020008040880080408000de
:1017c800f1ff200087ff0700c04380009e0f5000f4
:1017d800fdff32001e0fe800b04080008bff0700bd
:1017e800ae009000c0438000808f5000f1ff3e00a3
:1017f800200020008040880080408000f1ff200009
:1018080078ff07000000eb00b04088000000eb0004
:10181800000f78000000eb00c043880080392300e7
:10182800610120008dfa07000000eb00804088006d
:1018380080408000f1ff20006aff0700c04380005d
:101848009e0f5000fdff3200b04080000000e8000d
:10185800b04088001e0fe800b04080006bff070012
:101868009e009000c0438000808f5000eeff3e0035
:10187800200020008040880080408000f1ff200088
:1018880058ff0700b140800002cab3000090210051
:10189800710107000080fa00000006000000fa004d
:1018a800c102a900c122a800c142a900c162a900c1
:1018b800c502a900e3e2a800c542a800f0ff200085
:1018c80030168800c742a900cb42a900d202a8005e
:1018d800d222a900d602a90010002000c016880054
:1018e800d802a900d822a900d842a900d862a90024
:1018f800d882a900d8a2a900d8c2a900d8e2a90014
:10190800dc02a900dc22a900dc42a900dc62a900f3
:10191800dc82a900dca2a900dcc2a900dce2a900e3
:101928000000eb00f0168800dec2a800c562a8001f
:10193800002021002043880000902100d04088002a
:10194800f0ff2000a0408800f007200090408800a9
:101958000000eb00304388006808a9006848a90027
:101968006828a9006868a9000000eb00c043880047
:101978000000eb00104388000000eb00e042880004
:1019880000022000f0428800f02f2d00301088005f
:1019980031108000f0f12f000080600030108800c6
:1019a800b0112000201088001201c3000000eb00d5
:1019b800204488000000eb00704488000000eb0021
:1019c80080448800100d200020028800008020003c
:1019d80070438800a09f200080438800e086200094
:1019e800c9fb070000002400c04488000000eb0089
:1019f800d04488000000eb00e0448800e186200025
:101a080080892000cbfb07000080fa000000060058
:101a18000000fa009400a9008400a9008200a80030
:101a2800a4c0bf007040b300a4e0b7000000eb0002
:101a3800604088009620a8008620a9008240a8005f
:101a4800c10a200091407800f0c8b30000c06000cf
:101a580001c6b30001407000ace0b7009640a80092
:101a68008640a900d10a20009140780080cfb300b9
:101a780000c060000014a000ade0b700710a2000ab
:101a88009140780080cfb30000c060003040b300c0
:101a9800a7e0b7000080fa00000006000000fa0086
:101aa80000af2500102088000be4a8000bc4a80094
:101ab8000ba4a9000b84a900b14020009140780034
:101ac80030cfb30000c060000be4b7000b24a900be
:101ad8000b04a9000ac4bf00f043b2000ae4b7002f
:101ae8000a04a80009e4a90009c4a90009a4a900d6
:101af8000984a9000964a9000944a9000924a900c6
:101b08000904a9001009200090208800100920006d
:101b1800a02088000824a9000804a80080d7220073
:101b2800702088000000eb00802088001fe4a800d7
:101b38001fc4a8001fa4a9001f84a900f141200008
:101b48009140780030cfb30000c060001fe4b700b8
:101b58001f24a9001f04a9001ec4bf00f043b2003f
:101b68001ee4b7001e04a8001de4a9001dc4a900b6
:101b78001da4a9001d84a9001d64a9001d44a90075
:101b88001d24a9001d04a900100920003021880087
:101b980010092000402188001c24a9001c04a8006a
:101ba80080d72200102188000000eb002021880047
:101bb80033e4a80033c4a80033a4a9003384a900df
:101bc800314320009140780030cfb30000c060005e
:101bd80033e4b7003324a9003304a90032c4bf009a
:101be800f043b20032e4b7003204a80031e4a9009f
:101bf80031c4a90031a4a9003184a9003164a90025
:101c08003144a9003124a9003104a9001009200099
:101c1800d021880010092000e02188003024a90084
:101c28003004a80080d72200b02188000000eb0013
:101c3800c021880047e4a80047c4a80047a4a90019
:101c48004784a900714420009140780030cfb30048
:101c580000c0600047e4b7004724a9004704a90072
:101c680046c4bf00f043b20046e4b7004604a800eb
:101c780045e4a90045c4a90045a4a9004584a900d4
:101c88004564a9004544a9004524a9004504a900c4
:101c98001009200070228800100920008022880086
:101ca8004424a9004404a80080d7220050228800b8
:101cb8000000eb0060228800302080006700600090
:101cc8000105200001007000302088000164a80090
:101cd80001e4a8000080fa00000006000000fa00f5
:101ce80001a3a9000103a90000e3a90000c3a900fa
:101cf80000a3a800013020009140780080cfb300f5
:101d080000c060005040b30000e3b700910a200013
:101d180091407800f0c8b30000c0600001c4b3006f
:101d280001407000a9e0b700007f2f00101888005c
:101d38000000eb0030188800a130200091407800a6
:101d480000ceb30000c060000004a0000ae3b700a2
:101d5800b13020009140780000ceb30000c0600090
:101d6800c040b3000be3b700f13020009140780089
:101d780000ceb30000c060000004a0000fe3b7006d
:101d88000ae3a8000be3a8000fe3a8008560a900f8
:101d98009560a8008460a9009460a90001e3a800e8
:101da8000080fa00000006000000fa000000eb00c6
:101db800200888004110200091407800f0ccb30042
:101dc80000c0600004e1b7000000eb0000088800d4
:101dd80060252000100888008460a90005e1a8009b
:101de8000000eb0080088800011120009140780075
:101df800f0ccb30000c0600001c2b3000140700025
:101e080010e1b7000000eb0030088800f0ff200068
:101e18006008880084c0a90094c0a8000000eb00f6
:101e2800900888002111200091407800f0ccb30080
:101e380000c0600012e1b7000000eb005008880005
:101e4800f0ff21007008880084e0a90094e0a80051
:101e58000080fa00000006000c00fa003007980025
:101e680041079800224f9800be009000f0f321002f
:101e7800808f500020003e004e0090004800de0099
:101e8800004f78004e009000104798003e009000e8
:101e980000004000200798002e0090004800de0057
:101ea800304798002e00900020479800ae499000d7
:101eb8001e417800ae4090003e4090004000070070
:101ec8003e009000000040000000e8002007980055
:101ed8002e0090004800de00304798002e00900049
:101ee80020479800ae4990001e419000ae409000f7
:101ef8003e409000320007000080fa000000060013
:101f08000a00fa0030079800014f9800be009000c0
:101f1800f0f32100808f50001c003e003e0090002e
:101f280000004000200798002e0090004800de00c6
:101f3800304798002e009000204798000e499000e6
:101f4800ae4090003e409000ad000700004f780082
:101f58003e009000000040000000e80020079800c4
:101f68002e0090004800de00304798002e009000b8
:101f7800204798000e499000ae4090003e409000e7
:101f88009f00070010479800040037000040eb004e
:101f9800104798000040eb00004f78001e80fb00bf
:101fa800c800dd001e4090000080fb00008040005b
:101fb800200798002e0090000080fa00000006001c
:101fc8000600fa00204798003147980042479800d9
:101fd800534798000000eb005008880013e1a80060
:101fe80010c0b300004f780009c2bf000044b2001f
:101ff8000004e000fcff3a000602a80006c2bf0089
:10200800614060000004e000fcff3a000000eb00c3
:10201800500888005e4090000080fb001010880087
:1020280009c2bf000044b2000004e000fcff320017
:102038000000eb005008880009c2bf000044b2004d
:102048000004e000fcff3a000000eb0050088800a4
:102058002e4090000080fb001010880009c2bf00cd
:102068000044b2000004e000fcff32000000eb0076
:102078005008880009c2bf000044b2000004e00014
:10208800fcff3a000000eb00500888003e4090003a
:102098000080fb001010880009c2bf000044b20095
:1020a8000004e000fcff32000000eb00500888004c
:1020b80009c2bf000044b2000004e000fcff3a007f
:1020c8000000eb00500888004e4090000080fb00a4
:1020d8001010880009c2bf000044b2000004e000ec
:1020e800fcff32000000eb005008880009c2bf0066
:1020f8000044b2000004e000fcff3a000000eb00de
:10210800500888000642a80006c2bf00644060006c
:102118000004e000fcff3a000000eb0050088800d3
:1021280009c2bf000044b2000004e000fcff3a000e
:102138000000eb005008880013e1a900c0852300c7
:102148002100200045f8070013e1a8002800370007
:102158000602a8000000eb005008880006c2bf0075
:10216800614060000004e000fcff3a000000eb0062
:10217800500888005e4090000080fb001010880026
:1021880009c2bf000044b2000004e000fcff3200b6
:102198000000eb005008880009c2bf000044b200ec
:1021a8000004e000fcff3a000000eb005008880043
:1021b800912020009140780000c8b30000c0600062
:1021c8000004e0000a003a000040eb00004f7800ed
:1021d8000642a80006c2bf00644060000004e00098
:1021e800fcff3a000000eb005008880013e1a9004a
:1021f8001e04e000d6ff3a000080fa000000060046
:102208000600fa0020479800314798004247980096
:102218000000eb005008880013e1a80009c2bf00c5
:102228000044b2000004e000fcff3a000000eb00ac
:10223800500888000602a80006c2bf00614060007e
:102248000004e000fcff3a000000eb0050088800a2
:102258004e4090000080fb001010880009c2bf00ab
:102268000044b2000004e000fcff32000000eb0074
:102278005008880009c2bf000044b2000004e00012
:10228800fcff3a000000eb00500888002e40900048
:102298000080fb001010880009c2bf000044b20093
:1022a8000004e000fcff32000000eb00500888004a
:1022b80009c2bf000044b2000004e000fcff3a007d
:1022c8000000eb00500888003e4090000080fb00b2
:1022d8001010880009c2bf000044b2000004e000ea
:1022e800fcff32000000eb005008880009c2bf0064
:1022f8000044b2000004e000fcff3a000000eb00dc
:10230800500888000622a80006c2bf00624060008c
:102318000004e000fcff3a000000eb0050088800d1
:102328004e4090000004a0000080fb0010108800c0
:1023380009c2bf000044b2000004e000fcff320004
:102348000000eb005008880009c2bf000044b2003a
:102358000004e000fcff3a000000eb005008880091
:102368000662a80006c2bf00684060000004e000e2
:10237800fcff3a000000eb00500888000642a80065
:1023880006c2bf00644060000004e000fcff3a00a1
:102398000000eb005008880008c2bf0062406000df
:1023a8000004e000fcff32000000eb005008880049
:1023b80000108000004f780013e1a9001e80fb0088
:1023c8000080fa00000006000600fa0010079800d6
:1023d800414798009e009000f0ff200000806000b8
:1023e800100798001e0090004800de00004f78009b
:1023f8001e009000104798000000eb00500888006d
:1024080013e1a80009c2bf000044b2000004e000c4
:10241800fcff3a000000eb00500888000602a80004
:1024280006c2bf00614060000004e000fcff3a0003
:102438000000eb00500888004e4090000080fb0030
:102448001010880009c2bf000044b2000004e00078
:10245800fcff32000000eb005008880009c2bf00f2
:102468000044b2000004e000fcff3a000000eb006a
:10247800500888001e80fb001010880009c2bf00a9
:102488000044b2000004e000fcff32000000eb0052
:102498005008880009c2bf000044b2000004e000f0
:1024a800fcff3a000000eb00500888001e40900036
:1024b8000080fb001010880009c2bf000044b20071
:1024c8000004e000fcff32000000eb005008880028
:1024d80009c2bf000044b2000004e000fcff3a005b
:1024e8000000eb00500888001e80fb0010108800d8
:1024f80009c2bf000044b2000004e000fcff320043
:102508000000eb005008880009c2bf000044b20078
:102518000004e000fcff3a000000eb0050088800cf
:102528001e4090000080fb001010880009c2bf0008
:102538000044b2000004e000fcff32000000eb00a1
:102548005008880009c2bf000044b2000004e0003f
:10255800fcff3a000000eb00500888000642a80083
:1025680006c2bf00644060000004e000fcff3a00bf
:1025780013e1a9000080fa00000006000800fa0034
:10258800604798000000eb005008880013e1a8009d
:1025980009c2bf000044b2000004e000fcff3a009a
:1025a8000602a80006c2bf00614060000004e00007
:1025b800fcff3a000000eb00500888006e409000d5
:1025c8000004a0000080fb001010880009c2bf00b2
:1025d8000044b2000004e000fcff32000000eb0001
:1025e8005008880009c2bf000044b2000004e0009f
:1025f800fcff3a000000eb00500888000662a800c3
:1026080006c2bf00684060000004e000fcff3a001a
:102618000000eb005008880008c2bf00624060005c
:102628000004e000fcff32000000eb0050088800c6
:1026380000108000204798000662a80006c2bf006c
:10264800684060000004e000fcff3a000000eb0076
:102658005008880008c2bf00624060000004e00023
:10266800fcff32000000eb005008880000108000da
:10267800104798000662a80006c2bf0068406000c4
:102688000004e000fcff3a000000eb00500888005e
:1026980008c2bf00624060000004e000fcff320096
:1026a8000000eb005008880000108000004f780000
:1026b8000662a80006c2bf00684060000004e0008f
:1026c800fcff3a000000eb005008880008c2bf0079
:1026d800624060000004e000fcff32000000eb00f4
:1026e8005008880000108000004f78000662a8009b
:1026f80006c2bf00684060000004e000fcff3a002a
:102708000000eb005008880008c2bf00624060006b
:102718000004e000fcff32000000eb0050088800d5
:1027280000108000104798000642a80006c2bf00ab
:10273800644060000004e000fcff3a000000eb0089
:10274800500888001e80fb006f006000c800dd0094
:102758001e4090000080fb00008040002007980089
:1027680013e1a9002e0090000080fa000000060086
:102778000000fa009560a9008560a9009560a8008e
:102788000080fa00004006003600f800809fbe0076
:10279800821f78000000fa007044800002082000c0
:1027a800110009000200d8008000fd007044880074
:1027b800804480000002b00080448800804480008b
:1027c80002082000110009000200d8008000fd0066
:1027d80080448800111120009140780000c8b3009f
:1027e80000c060000004e000570032008040800014
:1027f8000000e00020003a00714480009040800012
:102808000080600080004000c04c2800008040002c
:10281800100078007020880071448000904080008b
:102828000080600080004000c05c280000804000fc
:1028380010007800102188008144800090408000ba
:102848000080600080004000c04c280000804000ec
:1028580010007800b02188008144800090408000fa
:102868000080600080004000c05c280000804000bc
:10287800100078005022880080408000e10f50004e
:1028880020003a0081448000904080000080600071
:1028980080004000c04c28000080400010007800f4
:1028a8007020880081448000904080000080600093
:1028b80080004000c05c28000080400010007800c4
:1028c80010218800714480009040800000806000e2
:1028d80080004000c04c28000080400010007800b4
:1028e800b021880071448000904080000080600022
:1028f80080004000c05c2800008040001000780084
:102908005022880080408000e20f500008003a0002
:1029180080d722007020880080d7220010218800ec
:1029280080d72200b021880080d72200502288005a
:10293800704480000000e8007044880080448000f3
:102948000000e800804488008640a90021448000f7
:1029580070382100808f500004003e002044800021
:102968000000e80020448800020037000000eb0067
:10297800204488000080fa004f0178004f00be0014
:102988003600f9000040060000a0fe000000fa0032
:102998009400a90001e4a900cb42a800000120008e
:1029a80001002000f03fb1000180b10006003500b1
:1029b800ee03090000000000403fb1000180b100b3
:1029c800fbff3d001000b000203fb00002003500c2
:1029d8000080090000000000cb42a9000000eb00c5
:1029e800604088008400a90010002000304388005f
:1029f80001e4a8000080fa000080fe000040060004
:102a0800801f78000000fa00304080000000e000dd
:102a18000400320040002000304088006808a80008
:102a28009620a9008620a9000080fa004f007800af
:102a380000400600801f78000000fa0084c0a9004a
:102a480011e1a900c04380000000e800c0438800ed
:102a58000080fa004f007800004006000000fa00ed
:102a680084e0a9000000fe000080fa000040060093
:020000040000fa
:102a780098080000060000000200000000000000a6
:102a8800000000000608000092000000000000009e
:102a9800000800000600000000000000fa0900001d
:0c2aa8000600000000000000000000001c
:00000001FF
