:020000040000fa
:080000000001040000000000f3
:020000040000fa
:10020000af8320000e9f20000e0188000000000038
:100210000c000700c00d2100010020001f00070096
:10022000000020000000e000020032000000020098
:1002300000000000b0030200000000000040da00ef
:100240000000fe004440a900002020000000e00063
:100250000300320000002000a00188004440a800f4
:1002600000000600f03fb1000180b100060035003b
:10027000ee03090000000000403fb1000180b10022
:10028000fbff3d001000b000203fb0000200350031
:1002900000800900000000000000060091018800b5
:1002a000800078000000eb0015003700e28040007d
:1002b00032a0b4009101ba00e280400032a0b40044
:1002c0009102ba00e280400032a0b4000002eb00cc
:1002d000472bde00f507b200602ce10004003a0075
:1002e0000059eb008301e900fdff3e0004003700e8
:1002f0006128e100010032000082eb0004000700e9
:100300001101ba000200e000e8ff3a000000060018
:100310003159ba008301e9000c0032002159ba00ba
:100320008301e900080032000400e00003003a0005
:10033000e280400032a0b400f5ff370011d9ba00c6
:100340008301e900faff3a008100e800e180400003
:1003500032a0b400000006000040da000000fe00f9
:020000040000fa
:0200000401f009
:04000800ffff0000f6
:020000040000fa
:0200000401f009
:04000c00fdff0000f4
:020000040000fa
:0200000401f009
:040010007fff00006e
:020000040000fa
:0200000401f009
:04001400ffff0000ea
:020000040000fa
:0200000401f009
:04001800ffff0000e6
:020000040000fa
:0200000401f009
:04001c00ffff0000e2
:020000040000fa
:10000800ac010000ac010000ac010000ac01000034
:10001800ac010000ac010000ac010000ac01000024
:1000280068100000ac010000ac010000ac01000049
:10003800ac010000ac010000be100000d2100000ae
:10004800ac010000ac010000ac0100005c0f000036
:10005800ac010000ac010000ac010000ac010000e4
:10006800ac010000a4100000680f0000ac01000003
:10007800ac010000ac010000ac010000ac010000c4
:10008800ac010000ac010000ac010000ac010000b4
:10009800ac010000ac010000ac010000ac010000a4
:1000a800ac010000ac010000ac010000ac01000094
:1000b800ac010000ac010000ac010000ac01000084
:1000c800ac010000ac010000ac010000ac01000074
:1000d800ac010000ac010000ac010000ac01000064
:1000e800ac010000ac010000ac010000ac01000054
:0800f800ac010000ac010000a6
:020000040000fa
:10010800ac010000ac010000ac010000ac01000033
:10011800ac010000ac010000ac010000ac01000023
:1001280068100000ac010000ac010000ac01000048
:10013800ac010000ac010000be100000d2100000ad
:10014800ac010000ac010000ac0100005c0f000035
:10015800ac010000ac010000ac010000ac010000e3
:10016800ac010000a4100000680f0000ac01000002
:10017800ac010000ac010000ac010000ac010000c3
:10018800ac010000ac010000ac010000ac010000b3
:10019800ac010000ac010000ac010000ac010000a3
:1001a800ac010000ac010000ac010000ac01000093
:1001b800ac010000ac010000ac010000ac01000083
:1001c800ac010000ac010000ac010000ac01000073
:1001d800ac010000ac010000ac010000ac01000063
:1001e800ac010000ac010000ac010000ac01000053
:0801f800ac010000ac010000a5
:020000040000fa
:10036000efff0000efff0000efff0000efff0000d5
:10037000efff0000efff0000efff0000efff0000c5
:10038000efff0000efff0000efff0000efff0000b5
:10039000efff0000efff0000efff0000efff0000a5
:1003a000efff0000efff0000efff0000efff000095
:1003b000efff0000efff0000efff0000efff000085
:1003c000efff0000efff0000efff0000efff000075
:1003d000efff0000efff0000efff0000efff000065
:1003e000efff0000efff0000efff0000efff000055
:1003f000efff0000efff0000efff0000efff000045
:10040000efff0000efff0000efff0000efff000034
:10041000efff0000efff0000efff0000efff000024
:10042000efff0000efff0000efff0000efff000014
:10043000efff0000efff0000efff0000efff000004
:10044000efff0000efff0000efff0000efff0000f4
:10045000efff0000efff0000efff0000efff0000e4
:1004600009590000235700003f5500005f5300006a
:1004700083510000ad4f0000de4d0000174c00001e
:10048000594a0000a6480000fe46000062450000f0
:10049000d343000053420000e2400000813f0000cf
:1004a000303e0000f23c0000c63b0000ad3a0000c8
:1004b000a9390000b8380000dd3700001837000007
:1004c00068360000cf3500004d350000e2340000f2
:1004d0008f34000053340000303400002434000016
:1004e0002434000030340000533400008f34000006
:1004f000e23400004d350000cf35000068360000c2
:1005000018370000dd370000b8380000a9390000b6
:10051000ad3a0000c63b0000f23c0000303e000057
:10052000813f0000e240000053420000d34300003e
:1005300062450000fe460000a6480000594a00003f
:10054000174c0000de4d0000ad4f0000835100004d
:100550005f5300003f550000235700000959000079
:1005600009590000235700003f5500005f53000069
:1005700083510000ad4f0000de4d0000174c00001d
:10058000594a0000a6480000fe46000062450000ef
:10059000d343000053420000e2400000813f0000ce
:1005a000303e0000f23c0000c63b0000ad3a0000c7
:1005b000a9390000b8380000dd3700001837000006
:1005c00068360000cf3500004d350000e2340000f1
:1005d0008f34000053340000303400002434000015
:1005e0002434000030340000533400008f34000005
:1005f000e23400004d350000cf35000068360000c1
:1006000018370000dd370000b8380000a9390000b5
:10061000ad3a0000c63b0000f23c0000303e000056
:10062000813f0000e240000053420000d34300003d
:1006300062450000fe460000a6480000594a00003e
:10064000174c0000de4d0000ad4f0000835100004c
:100650005f5300003f550000235700000959000078
:10066000efff0000efff0000efff0000efff0000d2
:10067000efff0000efff0000efff0000efff0000c2
:10068000efff0000efff0000efff0000efff0000b2
:10069000efff0000efff0000efff0000efff0000a2
:1006a000efff0000efff0000efff0000efff000092
:1006b000efff0000efff0000efff0000efff000082
:1006c000efff0000efff0000efff0000efff000072
:1006d000efff0000efff0000efff0000efff000062
:1006e000efff0000efff0000efff0000efff000052
:1006f000efff0000efff0000efff0000efff000042
:10070000efff0000efff0000efff0000efff000031
:10071000efff0000efff0000efff0000efff000021
:10072000efff0000efff0000efff0000efff000011
:10073000efff0000efff0000efff0000efff000001
:10074000efff0000efff0000efff0000efff0000f1
:10075000efff0000efff0000efff0000efff0000e1
:020000040000fa
:100760000000fa0042c7bf000042b2000004e000ef
:10077000fcff32008039230061012000b9fe070030
:1007800000382c00911c2000b6fe07000000eb0092
:10079000004088000060fe0001000700fdff3700f8
:1007a0000600fa00889fbe00004080000000e000c4
:1007b00030003a007c030700c303070001cab300fe
:1007c00000502000460207002007980080392300cf
:1007d00061012000a3fe07002e0090000000e00051
:1007e000100032000000eb00904088009140800033
:1007f00002cab300002021000f0207008039230045
:100800006101200097fe07009140800002cab300fa
:1008100000502000080207008039230061012000f9
:1008200090fe070001cab300002021002c0207003f
:1008300090408800803923006101200089fe070074
:1008400001cab30000902100250207008040880003
:10085000803923006101200082fe0700bd030700ec
:100860004c0407007e04070090408000813e200079
:10087000b001070000408000e20f500052003a0033
:10088000304080000000e00004003a0084c0bf0057
:10089000614060000004e000020032003701070000
:1008a00030408800c8c2bf00704060000004e00013
:1008b00022003a00803923006101200069fe070010
:1008c0000000eb00100798000000eb00f0408800eb
:1008d000110037000000eb0050408800804080008d
:1008e0000000e8008040880050408000f1ff2000b8
:1008f00010010700f14080001e009000808f500022
:10090000fcff32001e0090000000e8001007980075
:100910008040800011010700c8c2bf007040600025
:100920000004e000ebff320020002000504088006f
:1009300050408000f1ff2000fe000700c8c2bf0049
:100940000042b2000004e0001f003a00803923009a
:100950006101200043fe07000000eb00000f78005b
:100960000000eb00f04088000e003700100020006f
:1009700050408800804080000000e90080408800ee
:1009800050408000f1ff2000ea000700f0408000a6
:100990009e0f5000fdff32001e0fe80080408000d7
:1009a000ee000700c8c2bf000042b2000004e00031
:1009b000eeff3200200020005040880050408000b0
:1009c000f1ff2000db00070000408000e30f500033
:1009d0005f003a00c8c2bf00704060000004e00041
:1009e00003003a0080408000813e20005101070052
:1009f000c8c2bf000042b2000004e00003003a0099
:100a000090408000813e20004a0107000000eb007a
:100a100000418800d04080000000e0002a00320041
:100a20000000eb00d04088000000eb00b0408800e0
:100a3000c9c2bf00614060000004e00022003a002b
:100a40000000eb00104188000fa3a80006c3bf0000
:100a50000042b2000004e000fcff3200b019800048
:100a6000004188000aa3a80006c3bf0061406000df
:100a70000004e000fcff32002041800010418800ab
:100a800000198000204188000603a90006a3a900e0
:100a9000004180006101b900604180007141800027
:100aa0000200400083804800604188007141880056
:100ab000214180001041800000805000b04088003b
:100ac000b40007003040880041418000309c200085
:100ad000808f500016003600684180007941800008
:100ae0006041800071418000ce0bde004209dd00d4
:100af0004e03de000603710086007800a00f200080
:100b00000009b8006030b90003027800000242001a
:100b1000a00f200000b8b900000242008401780054
:100b20000200540083805c006041880071418800ad
:100b300032000700800078009040800080804000f4
:100b4000b040800000804000504188004000070015
:100b500000408000e40f500001003a0093000700bd
:100b600092000700030007004f04be000080fa0057
:100b7000000006000000fa0000408000e40f500072
:100b80001c003200d4c2bf00614060000004e000dd
:100b90000500320010002000b04188000000eb008a
:100ba000c04188000400370010002000c0418800c8
:100bb0000000eb00b0418800b04180000000e00080
:100bc00007003200300020000040880030408000e4
:100bd0000000e00002003a006e000700304088008c
:100be000c04180000000e000020032002000200030
:100bf000004088000080fa00000006000000fa00b3
:100c00006041800071418000400bde000700200041
:100c100086007800003220000009b8006030b9007a
:100c200003027800000242000032200000b8b90040
:100c30000002420084017800471add004910de00fe
:100c400000007200c918de000080fa0000000600f3
:100c50000000fa0081408000504180000080500078
:100c6000eb0f400010003e00f0ff200060088800fd
:100c70000000eb003008880011e1a80010002000ff
:100c800050408800804080000000e90080408800db
:100c900011c1bf0001c8b300014060000004e000c2
:100ca000fbff3a0021003700814080005041800066
:100cb00000805000ea0f500010003600f0ff2000c6
:100cc000600888000000eb003008880011e1a800ef
:100cd0000000eb0050408800804080000000e800e9
:100ce0008040880011c1bf0001c8b300014060000e
:100cf0000004e000fbff3a000c003700f0ff20008a
:100d0000600888000000eb003008880011e1a800ae
:100d1000200020005040880011c1bf0001c8b3006e
:100d2000014060000004e000fbff3a000080fa0090
:100d3000000006000400fa00000f78001107980078
:100d4000f0ff2000600888000000eb0030088800f9
:100d500011e1a8000080fa00000006000200fa007d
:100d6000000f78001e0078004200dd0001ccb300c7
:100d7000670307000080fa00000006000000fa0088
:100d80009400a9008400a9000000eb000080fa0094
:100d9000000006000000fa009400a8008400a900ea
:100da000100020000080fa00000006000200fa0097
:100db000e0408000610060000000e000250032009b
:100dc000400020000040880001e4a90084c0bf006a
:100dd000684060000004e000fcff32002019800041
:100de0001040880030198000204088000643a90088
:100df0000663a9008460a9000000eb0000088800d9
:100e000011408000401c2000808f500010003600f0
:100e100011408000b0232000808f50000c003e0065
:100e200021408000401c2000808f500008003600c8
:100e300021408000b0232000808f500004003e003d
:100e40001c08a900200020000040880001e4a80040
:100e50009620a800e0408000640060000000e000f0
:100e60000300320030002000004088001c48a90028
:100e7000e0408000640060000000e00007003200f5
:100e8000e0408000610060000000e00003003200ec
:100e900010002000000f7800020037000000eb0077
:100ea000000f78001e40780061406000c700dd0040
:100eb000e3c2bf000074a10001407000e3e2b7008c
:100ec000e04080004200de000000a20061406000bf
:100ed0006140600061406000614060004201dd00ef
:100ee000512c200091407800b0cfb30000c06000ca
:100ef00002407000c5e2b700e04080000000a200a0
:100f000061406000614060006140600061406000dd
:100f10004301dd00512c20009140780070cfb300d8
:100f200000c0600002407000c5e2b7000080fa0017
:100f3000000006000600fa0010079800210798003c
:100f40000000eb00000f78000000eb00f04088008c
:100f5000100020005040880050408000f1ff200029
:100f600074ff0700f04080009e0f5000fdff32002c
:100f70001e0fe8008040800078ff0700ae00900060
:100f8000f0408000808f5000f1ff3e0020002000e4
:100f90005040880050408000f1ff200065ff0700ae
:100fa0000000eb00804088000000eb00000f78009c
:100fb0000000eb00f0408800803923006101200030
:100fc000a8fc07000000eb00504088005040800063
:100fd000f1ff200057ff0700f04080009e0f5000f7
:100fe000fdff3200804080000000e8008040880063
:100ff0001e0fe8008040800058ff07009e00900010
:10100000f0408000808f5000eeff3e002000200066
:101010005040880050408000f1ff200045ff07004d
:101020008140800002cab300009021000200070046
:101030000080fa00000006000c00fa00300798005b
:1010400041079800224f9800be009000f0f3210065
:10105000808f500020003e004e0090004800de00cf
:10106000004f78004e009000104798003e0090001e
:1010700000004000200798002e0090004800de008d
:10108000304798002e00900020479800ae4990000d
:101090001e417800ae4090003e40900040000700a6
:1010a0003e009000000040000000e800200798008b
:1010b0002e0090004800de00304798002e0090007f
:1010c00020479800ae4990001e419000ae4090002d
:1010d0003e409000320007000080fa000000060049
:1010e0000a00fa0030079800014f9800be009000f7
:1010f000f0f32100808f50001c003e003e00900065
:1011000000004000200798002e0090004800de00fc
:10111000304798002e009000204798000e4990001c
:10112000ae4090003e409000ad000700004f7800b8
:101130003e009000000040000000e80020079800fa
:101140002e0090004800de00304798002e009000ee
:10115000204798000e499000ae4090003e4090001d
:101160009f00070010479800040037000040eb0084
:10117000104798000040eb00004f78001e80fb00f5
:10118000c800dd001e4090000080fb000080400091
:10119000200798002e0090000080fa000000060052
:1011a0000600fa002047980031479800424798000f
:1011b000534798000000eb005008880013e1a80096
:1011c00010c0b300004f780009c2bf000044b20055
:1011d0000004e000fcff3a000602a80006c2bf00bf
:1011e000614060000004e000fcff3a000000eb00fa
:1011f000500888005e4090000080fb0010108800be
:1012000009c2bf000044b2000004e000fcff32004d
:101210000000eb005008880009c2bf000044b20083
:101220000004e000fcff3a000000eb0050088800da
:101230002e4090000080fb001010880009c2bf0003
:101240000044b2000004e000fcff32000000eb00ac
:101250005008880009c2bf000044b2000004e0004a
:10126000fcff3a000000eb00500888003e40900070
:101270000080fb001010880009c2bf000044b200cb
:101280000004e000fcff32000000eb005008880082
:1012900009c2bf000044b2000004e000fcff3a00b5
:1012a0000000eb00500888004e4090000080fb00da
:1012b0001010880009c2bf000044b2000004e00022
:1012c000fcff32000000eb005008880009c2bf009c
:1012d0000044b2000004e000fcff3a000000eb0014
:1012e000500888000642a80006c2bf0064406000a3
:1012f0000004e000fcff3a000000eb00500888000a
:1013000009c2bf000044b2000004e000fcff3a0044
:101310000000eb005008880013e1a900c0852300fd
:1013200021002000cffb070013e1a80028003700b0
:101330000602a8000000eb005008880006c2bf00ab
:10134000614060000004e000fcff3a000000eb0098
:10135000500888005e4090000080fb00101088005c
:1013600009c2bf000044b2000004e000fcff3200ec
:101370000000eb005008880009c2bf000044b20022
:101380000004e000fcff3a000000eb005008880079
:10139000912020009140780000c8b30000c0600098
:1013a0000004e0000a003a000040eb00004f780023
:1013b0000642a80006c2bf00644060000004e000ce
:1013c000fcff3a000000eb005008880013e1a90080
:1013d0001e04e000d6ff3a000080fa00000006007c
:1013e0000600fa00204798003147980042479800cd
:1013f0000000eb005008880013e1a80009c2bf00fc
:101400000044b2000004e000fcff3a000000eb00e2
:10141000500888000602a80006c2bf0061406000b4
:101420000004e000fcff3a000000eb0050088800d8
:101430004e4090000080fb001010880009c2bf00e1
:101440000044b2000004e000fcff32000000eb00aa
:101450005008880009c2bf000044b2000004e00048
:10146000fcff3a000000eb00500888002e4090007e
:101470000080fb001010880009c2bf000044b200c9
:101480000004e000fcff32000000eb005008880080
:1014900009c2bf000044b2000004e000fcff3a00b3
:1014a0000000eb00500888003e4090000080fb00e8
:1014b0001010880009c2bf000044b2000004e00020
:1014c000fcff32000000eb005008880009c2bf009a
:1014d0000044b2000004e000fcff3a000000eb0012
:1014e000500888000622a80006c2bf0062406000c3
:1014f0000004e000fcff3a000000eb005008880008
:101500004e4090000004a0000080fb0010108800f6
:1015100009c2bf000044b2000004e000fcff32003a
:101520000000eb005008880009c2bf000044b20070
:101530000004e000fcff3a000000eb0050088800c7
:101540000662a80006c2bf00684060000004e00018
:10155000fcff3a000000eb00500888000642a8009b
:1015600006c2bf00644060000004e000fcff3a00d7
:101570000000eb005008880008c2bf006240600015
:101580000004e000fcff32000000eb00500888007f
:1015900000108000004f780013e1a9001e80fb00be
:1015a0000080fa00000006000000fa00c102a90055
:1015b000c122a800c142a900c162a900c502a900b8
:1015c000e3e2a800c542a800f0ff20003016880022
:1015d000c742a900cb42a900d202a800d222a9008a
:1015e000d602a90010002000c0168800d802a90069
:1015f000d822a900d842a900d862a900d882a9009f
:10160000d8a2a900d8c2a900d8e2a900dc02a9008a
:10161000dc22a900dc42a900dc62a900dc82a9006e
:10162000dca2a900dcc2a900dce2a9000000eb00fa
:10163000f0168800dec2a800c562a80000202100c4
:10164000c040880000902100a0408800f0ff2000ea
:1016500070408800f0072000604088000000eb0028
:10166000d04088001c08a9001c48a9001c28a9001b
:101670001c68a9000000eb00f04088000000eb00af
:10168000b0408800f02f2d0030108800311080000d
:10169000f0f12f000080600030108800b0112000b1
:1016a000201088001201c3000000eb0040418800b8
:1016b0000000eb00804188000000eb0090418800b2
:1016c0000080fa00000006000000fa009400a90063
:1016d0008400a9008200a800a4c0bf007040b3002d
:1016e000a4e0b7000000eb00304088009620a8007e
:1016f0008620a9008240a800c10a200091407800fd
:10170000f0c8b30000c0600001c6b3000140700023
:10171000ace0b7009640a8008640a900d10a20009e
:101720009140780080cfb30000c060000014a0009a
:10173000ade0b700710a20009140780080cfb3007f
:1017400000c060003040b300a7e0b7000080fa009e
:10175000000006000000fa0000af250010208800fd
:101760000be4a8000bc4a8000ba4a9000b84a900db
:10177000b14020009140780030cfb30000c060003d
:101780000be4b7000b24a9000b04a9000ac4bf0096
:10179000f043b2000ae4b7000a04a80009e4a90073
:1017a00009c4a90009a4a9000984a9000964a90021
:1017b0000944a9000924a9000904a900100920006e
:1017c0009020880010092000a02088000824a9008b
:1017d0000804a80080d72200702088000000eb00d9
:1017e000802088001fe4a8001fc4a8001fa4a9002f
:1017f0001f84a900f14120009140780030cfb30050
:1018000000c060001fe4b7001f24a9001f04a90046
:101810001ec4bf00f043b2001ee4b7001e04a800bf
:101820001de4a9001dc4a9001da4a9001d84a900d0
:101830001d64a9001d44a9001d24a9001d04a900c0
:101840001009200030218800100920004021880064
:101850001c24a9001c04a80080d7220010218800a5
:101860000000eb002021880033e4a80033c4a80066
:1018700033a4a9003384a9003143200091407800ab
:1018800030cfb30000c0600033e4b7003324a900b8
:101890003304a90032c4bf00f043b20032e4b70001
:1018a0003204a80031e4a90031c4a90031a4a90080
:1018b0003184a9003164a9003144a9003124a90070
:1018c0003104a90010092000d0218800100920004f
:1018d000e02188003024a9003004a80080d722002d
:1018e000b02188000000eb00c021880047e4a80078
:1018f00047c4a80047a4a9004784a9007144200058
:101900009140780030cfb30000c0600047e4b700da
:101910004724a9004704a90046c4bf00f043b20011
:1019200046e4b7004604a80045e4a90045c4a90060
:1019300045a4a9004584a9004564a9004544a9001f
:101940004524a9004504a900100920007022880040
:1019500010092000802288004424a9004404a80023
:1019600080d72200502288000000eb00602288000f
:101970003020800067006000010520000100700039
:10198000302088000164a80001e4a8000080fa006b
:10199000000006000000fa0001a3a9000103a9004d
:1019a00000e3a90000c3a90000a3a80001302000a3
:1019b0009140780080cfb30000c060005040b30079
:1019c00000e3b700910a200091407800f0c8b3000e
:1019d00000c0600001c4b30001407000a9e0b7007e
:1019e000007f2f00101888000000eb0030188800de
:1019f000a13020009140780000ceb30000c060000c
:101a00000004a0000ae3b700b13020009140780044
:101a100000ceb30000c06000c040b3000be3b700cd
:101a2000f13020009140780000ceb30000c060008b
:101a30000004a0000fe3b7000ae3a8000be3a8002e
:101a40000fe3a8008560a9009560a8008460a90044
:101a50009460a90001e3a8000080fa0000000600dd
:101a60000000fa000000eb00200888004110200070
:101a700091407800f0ccb30000c0600004e1b700f2
:101a80000000eb0000088800602520001008880096
:101a90008460a90005e1a8000000eb008008880030
:101aa0000111200091407800f0ccb30000c060002c
:101ab00001c2b3000140700010e1b7000000eb006c
:101ac00030088800f0ff20006008880084c0a9006a
:101ad00094c0a8000000eb009008880021112000ad
:101ae00091407800f0ccb30000c0600012e1b70074
:101af0000000eb0050088800f0ff2100700888000b
:101b000084e0a90094e0a8000080fa00000006002c
:101b10000600fa0010079800414798009e009000c8
:101b2000f0ff200000806000100798001e00900069
:101b30004800de00004f78001e009000104798001b
:101b40000000eb005008880013e1a80009c2bf00a4
:101b50000044b2000004e000fcff3a000000eb008b
:101b6000500888000602a80006c2bf00614060005d
:101b70000004e000fcff3a000000eb005008880081
:101b80004e4090000080fb001010880009c2bf008a
:101b90000044b2000004e000fcff32000000eb0053
:101ba0005008880009c2bf000044b2000004e000f1
:101bb000fcff3a000000eb00500888001e80fb008c
:101bc0001010880009c2bf000044b2000004e00009
:101bd000fcff32000000eb005008880009c2bf0083
:101be0000044b2000004e000fcff3a000000eb00fb
:101bf000500888001e4090000080fb0010108800f4
:101c000009c2bf000044b2000004e000fcff320043
:101c10000000eb005008880009c2bf000044b20079
:101c20000004e000fcff3a000000eb0050088800d0
:101c30001e80fb001010880009c2bf000044b200e3
:101c40000004e000fcff32000000eb0050088800b8
:101c500009c2bf000044b2000004e000fcff3a00eb
:101c60000000eb00500888001e4090000080fb0040
:101c70001010880009c2bf000044b2000004e00058
:101c8000fcff32000000eb005008880009c2bf00d2
:101c90000044b2000004e000fcff3a000000eb004a
:101ca000500888000642a80006c2bf0064406000d9
:101cb0000004e000fcff3a0013e1a9000080fa00f4
:101cc000000006000800fa00604798000000eb00e2
:101cd0005008880013e1a80009c2bf000044b20008
:101ce0000004e000fcff3a000602a80006c2bf00a4
:101cf000614060000004e000fcff3a000000eb00df
:101d0000500888006e4090000004a0000080fb0096
:101d10001010880009c2bf000044b2000004e000b7
:101d2000fcff32000000eb005008880009c2bf0031
:101d30000044b2000004e000fcff3a000000eb00a9
:101d4000500888000662a80006c2bf006840600014
:101d50000004e000fcff3a000000eb00500888009f
:101d600008c2bf00624060000004e000fcff3200d7
:101d70000000eb0050088800001080002047980009
:101d80000662a80006c2bf00684060000004e000d0
:101d9000fcff3a000000eb005008880008c2bf00ba
:101da000624060000004e000fcff32000000eb0035
:101db0005008880000108000104798000662a800b4
:101dc00006c2bf00684060000004e000fcff3a006b
:101dd0000000eb005008880008c2bf0062406000ad
:101de0000004e000fcff32000000eb005008880017
:101df00000108000004f78000662a80006c2bf00f5
:101e0000684060000004e000fcff3a000000eb00c6
:101e10005008880008c2bf00624060000004e00073
:101e2000fcff32000000eb0050088800001080002a
:101e3000004f78000662a80006c2bf00684060003c
:101e40000004e000fcff3a000000eb0050088800ae
:101e500008c2bf00624060000004e000fcff3200e6
:101e60000000eb0050088800001080001047980028
:101e70000642a80006c2bf00644060000004e00003
:101e8000fcff3a000000eb00500888001e80fb00b9
:101e90006f006000c800dd001e4090000080fb0065
:101ea000008040002007980013e1a9002e00900058
:101eb0000080fa00000006000000fa009560a9000a
:101ec0008560a9009560a8000080fa000040060027
:101ed0003600f800809fbe00821f78000000fa00e4
:101ee0008041800002082000110009000200d80093
:101ef0008000fd0080418800904180000002b00019
:101f000090418800904180000208200011000900e3
:101f10000200d8008000fd009041880011112000cf
:101f20009140780000c8b30000c060000004e000e9
:101f300057003200504080000000e00020003a00ce
:101f4000814180006040800000806000800040008f
:101f5000001b2800008040001000780070208800de
:101f6000814180006040800000806000800040006f
:101f7000002b28000080400010007800102188000d
:101f8000914180006040800000806000800040003f
:101f9000001b28000080400010007800b02188005d
:101fa000914180006040800000806000800040001f
:101fb000002b28000080400010007800502288008c
:101fc00050408000e10f500020003a009141800015
:101fd000604080000080600080004000001b2800fe
:101fe000008040001000780070208800914180003f
:101ff000604080000080600080004000002b2800ce
:10200000008040001000780010218800814180008d
:10201000604080000080600080004000001b2800bd
:102020000080400010007800b021880081418000cd
:10203000604080000080600080004000002b28008d
:10204000008040001000780050228800504080003e
:10205000e20f500008003a00801d25007020880023
:10206000f0fe2f0010218800801d2500b02188007f
:10207000f0fe2f0050228800804180000000e80020
:1020800080418800904180000000e8009041880075
:102090008640a90041418000309c2000808f500084
:1020a00004003e00404180000000e80040418800fc
:1020b000020037000000eb00404188000080fa0079
:1020c0004f0178004f00be003600f90000400600c6
:1020d00000a0fe000000fa009400a90001e4a9009d
:1020e000cb42a8000001200001002000f03fb10019
:1020f0000180b10006003500ee0309000000000079
:10210000403fb1000180b100fbff3d001000b00076
:10211000203fb000020035000080090000000000f0
:10212000cb42a9000000eb00304088008400a900e9
:1021300010002000d040880001e4a8000080fa00d0
:102140000080fe0000400600801f78000000fa00ba
:10215000004080000000e000040032004000200049
:10216000004088001c08a8009620a9008620a9002d
:102170000080fa004f00780000400600801f7800c1
:102180000000fa0084c0a90011e1a900f04080001d
:102190000000e800f04088000080fa004f0078005e
:1021a000004006000000fa0084e0a9000000fe00e4
:0821b0000080fa000040060067
:020000040000fa
:1021b800000800003a0000000000000000000000d5
:00000001FF
